{
  "contractName": "TaskManager",
  "abi": [
    {
      "inputs": [],
      "payable": false,
      "stateMutability": "nonpayable",
      "type": "constructor"
    },
    {
      "anonymous": false,
      "inputs": [
        {
          "indexed": false,
          "internalType": "address",
          "name": "owner",
          "type": "address"
        },
        {
          "indexed": false,
          "internalType": "string",
          "name": "name",
          "type": "string"
        },
        {
          "indexed": false,
          "internalType": "enum TaskManager.TaskPhase",
          "name": "phase",
          "type": "uint8"
        },
        {
          "indexed": false,
          "internalType": "uint256",
          "name": "priority",
          "type": "uint256"
        }
      ],
      "name": "TaskAdded",
      "type": "event"
    },
    {
      "constant": true,
      "inputs": [],
      "name": "nTasks",
      "outputs": [
        {
          "internalType": "uint256",
          "name": "",
          "type": "uint256"
        }
      ],
      "payable": false,
      "stateMutability": "view",
      "type": "function"
    },
    {
      "constant": true,
      "inputs": [
        {
          "internalType": "uint256",
          "name": "_taskIndex",
          "type": "uint256"
        }
      ],
      "name": "getTask",
      "outputs": [
        {
          "internalType": "address",
          "name": "owner",
          "type": "address"
        },
        {
          "internalType": "string",
          "name": "name",
          "type": "string"
        },
        {
          "internalType": "enum TaskManager.TaskPhase",
          "name": "phase",
          "type": "uint8"
        },
        {
          "internalType": "uint256",
          "name": "priority",
          "type": "uint256"
        }
      ],
      "payable": false,
      "stateMutability": "view",
      "type": "function"
    },
    {
      "constant": true,
      "inputs": [],
      "name": "listMyTasks",
      "outputs": [
        {
          "internalType": "uint256[]",
          "name": "",
          "type": "uint256[]"
        }
      ],
      "payable": false,
      "stateMutability": "view",
      "type": "function"
    },
    {
      "constant": false,
      "inputs": [
        {
          "internalType": "string",
          "name": "_name",
          "type": "string"
        },
        {
          "internalType": "enum TaskManager.TaskPhase",
          "name": "_phase",
          "type": "uint8"
        },
        {
          "internalType": "uint256",
          "name": "_priority",
          "type": "uint256"
        }
      ],
      "name": "addTask",
      "outputs": [
        {
          "internalType": "uint256",
          "name": "index",
          "type": "uint256"
        }
      ],
      "payable": false,
      "stateMutability": "nonpayable",
      "type": "function"
    },
    {
      "constant": false,
      "inputs": [
        {
          "internalType": "uint256",
          "name": "_taskIndex",
          "type": "uint256"
        },
        {
          "internalType": "enum TaskManager.TaskPhase",
          "name": "_phase",
          "type": "uint8"
        }
      ],
      "name": "updatePhase",
      "outputs": [],
      "payable": false,
      "stateMutability": "nonpayable",
      "type": "function"
    }
  ],
  "bytecode": "0x60806040523480156200001157600080fd5b5060008081905550620000636040518060400160405280601381526020017f437265617465205461736b204d616e6167657200000000000000000000000000815250600260016200010060201b60201c565b50620000ae6040518060400160405280601681526020017f43726561746520596f7572206669727374207461736b00000000000000000000815250600060016200010060201b60201c565b50620000f96040518060400160405280601081526020017f436c65616e20796f757220686f75736500000000000000000000000000000000815250600060056200010060201b60201c565b5062000512565b60006001821015801562000115575060058211155b62000188576040517f08c379a00000000000000000000000000000000000000000000000000000000081526004018080602001828103825260208152602001807f7072696f72697479206d757374206265206265747765656e203120616e64203581525060200191505060405180910390fd5b6200019262000419565b60405180608001604052803373ffffffffffffffffffffffffffffffffffffffff168152602001868152602001856006811115620001cc57fe5b8152602001848152509050600180829080600181540180825580915050906001820390600052602060002090600402016000909192909190915060008201518160000160006101000a81548173ffffffffffffffffffffffffffffffffffffffff021916908373ffffffffffffffffffffffffffffffffffffffff16021790555060208201518160010190805190602001906200026b92919062000463565b5060408201518160020160006101000a81548160ff021916908360068111156200029157fe5b02179055506060820151816003015550500391506000808154809291906001019190505550600260003373ffffffffffffffffffffffffffffffffffffffff1673ffffffffffffffffffffffffffffffffffffffff1681526020019081526020016000208290806001815401808255809150509060018203906000526020600020016000909192909190915055507f6f01dc0a3f1209ed3a201b417e08a69b7ab49236895cbcfa0f62b481101d7e1033868686604051808573ffffffffffffffffffffffffffffffffffffffff1673ffffffffffffffffffffffffffffffffffffffff168152602001806020018460068111156200038b57fe5b60ff168152602001838152602001828103825285818151815260200191508051906020019080838360005b83811015620003d3578082015181840152602081019050620003b6565b50505050905090810190601f168015620004015780820380516001836020036101000a031916815260200191505b509550505050505060405180910390a1509392505050565b6040518060800160405280600073ffffffffffffffffffffffffffffffffffffffff16815260200160608152602001600060068111156200045657fe5b8152602001600081525090565b828054600181600116156101000203166002900490600052602060002090601f016020900481019282601f10620004a657805160ff1916838001178555620004d7565b82800160010185558215620004d7579182015b82811115620004d6578251825591602001919060010190620004b9565b5b509050620004e69190620004ea565b5090565b6200050f91905b808211156200050b576000816000905550600101620004f1565b5090565b90565b6109ca80620005226000396000f3fe608060405234801561001057600080fd5b50600436106100575760003560e01c80631d65e77e1461005c5780633e625c4014610152578063a082a81914610238578063e2c5307514610297578063e95528f1146102b5575b600080fd5b6100886004803603602081101561007257600080fd5b81019080803590602001909291905050506102f0565b604051808573ffffffffffffffffffffffffffffffffffffffff1673ffffffffffffffffffffffffffffffffffffffff168152602001806020018460068111156100ce57fe5b60ff168152602001838152602001828103825285818151815260200191508051906020019080838360005b838110156101145780820151818401526020810190506100f9565b50505050905090810190601f1680156101415780820380516001836020036101000a031916815260200191505b509550505050505060405180910390f35b6102226004803603606081101561016857600080fd5b810190808035906020019064010000000081111561018557600080fd5b82018360208201111561019757600080fd5b803590602001918460018302840111640100000000831117156101b957600080fd5b91908080601f016020809104026020016040519081016040528093929190818152602001838380828437600081840152601f19601f820116905080830192505050505050509192919290803560ff16906020019092919080359060200190929190505050610447565b6040518082815260200191505060405180910390f35b610240610754565b6040518080602001828103825283818151815260200191508051906020019060200280838360005b83811015610283578082015181840152602081019050610268565b505050509050019250505060405180910390f35b61029f6107e9565b6040518082815260200191505060405180910390f35b6102ee600480360360408110156102cb57600080fd5b8101908080359060200190929190803560ff1690602001909291905050506107ef565b005b600060606000806001858154811061030457fe5b906000526020600020906004020160000160009054906101000a900473ffffffffffffffffffffffffffffffffffffffff1693506001858154811061034557fe5b90600052602060002090600402016001018054600181600116156101000203166002900480601f0160208091040260200160405190810160405280929190818152602001828054600181600116156101000203166002900480156103ea5780601f106103bf576101008083540402835291602001916103ea565b820191906000526020600020905b8154815290600101906020018083116103cd57829003601f168201915b50505050509250600185815481106103fe57fe5b906000526020600020906004020160020160009054906101000a900460ff1691506001858154811061042c57fe5b90600052602060002090600402016003015490509193509193565b60006001821015801561045b575060058211155b6104cd576040517f08c379a00000000000000000000000000000000000000000000000000000000081526004018080602001828103825260208152602001807f7072696f72697479206d757374206265206265747765656e203120616e64203581525060200191505060405180910390fd5b6104d56108a7565b60405180608001604052803373ffffffffffffffffffffffffffffffffffffffff16815260200186815260200185600681111561050e57fe5b8152602001848152509050600180829080600181540180825580915050906001820390600052602060002090600402016000909192909190915060008201518160000160006101000a81548173ffffffffffffffffffffffffffffffffffffffff021916908373ffffffffffffffffffffffffffffffffffffffff16021790555060208201518160010190805190602001906105ab9291906108f0565b5060408201518160020160006101000a81548160ff021916908360068111156105d057fe5b02179055506060820151816003015550500391506000808154809291906001019190505550600260003373ffffffffffffffffffffffffffffffffffffffff1673ffffffffffffffffffffffffffffffffffffffff1681526020019081526020016000208290806001815401808255809150509060018203906000526020600020016000909192909190915055507f6f01dc0a3f1209ed3a201b417e08a69b7ab49236895cbcfa0f62b481101d7e1033868686604051808573ffffffffffffffffffffffffffffffffffffffff1673ffffffffffffffffffffffffffffffffffffffff168152602001806020018460068111156106c957fe5b60ff168152602001838152602001828103825285818151815260200191508051906020019080838360005b8381101561070f5780820151818401526020810190506106f4565b50505050905090810190601f16801561073c5780820380516001836020036101000a031916815260200191505b509550505050505060405180910390a1509392505050565b6060600260003373ffffffffffffffffffffffffffffffffffffffff1673ffffffffffffffffffffffffffffffffffffffff1681526020019081526020016000208054806020026020016040519081016040528092919081815260200182805480156107df57602002820191906000526020600020905b8154815260200190600101908083116107cb575b5050505050905090565b60005481565b813373ffffffffffffffffffffffffffffffffffffffff166001828154811061081457fe5b906000526020600020906004020160000160009054906101000a900473ffffffffffffffffffffffffffffffffffffffff1673ffffffffffffffffffffffffffffffffffffffff1614156108a257816001848154811061087057fe5b906000526020600020906004020160020160006101000a81548160ff0219169083600681111561089c57fe5b02179055505b505050565b6040518060800160405280600073ffffffffffffffffffffffffffffffffffffffff16815260200160608152602001600060068111156108e357fe5b8152602001600081525090565b828054600181600116156101000203166002900490600052602060002090601f016020900481019282601f1061093157805160ff191683800117855561095f565b8280016001018555821561095f579182015b8281111561095e578251825591602001919060010190610943565b5b50905061096c9190610970565b5090565b61099291905b8082111561098e576000816000905550600101610976565b5090565b9056fea265627a7a72315820ce07b258d75b6bc4c118421d8531f4ae5237d6d4fe5995f6d4ceb6625698b31d64736f6c63430005100032",
  "source": "pragma solidity 0.5.16;\r\n\r\ncontract TaskManager {\r\n\r\n    uint public nTasks;\r\n    \r\n    //enum TaskPhase {ToDo = 0, InProgress = 1, Done = 2, ...}\r\n    enum TaskPhase {ToDo, InProgress, Done, Blocked, Review, Postponed, Canceled}\r\n    \r\n    struct TaskStruct {\r\n        address owner;\r\n        string name;\r\n        TaskPhase phase;\r\n        // Priority 1-5: 1 higher, 5 less important\r\n        uint priority;\r\n    }\r\n    TaskStruct[] private tasks;\r\n    //TaskStruct[] public tasks;\r\n    \r\n    mapping (address => uint[]) private myTasks;\r\n    //mapping (address => uint[]) public myTasks;\r\n\r\n    event TaskAdded(address owner, string name, TaskPhase phase, uint priority);\r\n    \r\n    modifier onlyOwner (uint _taskIndex) {\r\n         if  (tasks[_taskIndex].owner == msg.sender) {\r\n           _;\r\n        }\r\n    }\r\n    \r\n    constructor() public {\r\n        nTasks = 0;      \r\n        addTask (\"Create Task Manager\", TaskPhase.Done, 1);\r\n        addTask (\"Create Your first task\", TaskPhase.ToDo, 1);\r\n        addTask (\"Clean your house\", TaskPhase.ToDo, 5);\r\n    }    \r\n\r\n    function getTask(uint _taskIndex) public view\r\n        returns (address owner, string memory name, TaskPhase phase, uint priority) {\r\n        \r\n        owner = tasks[_taskIndex].owner;\r\n        name = tasks[_taskIndex].name;\r\n        phase = tasks[_taskIndex].phase;\r\n        priority = tasks[_taskIndex].priority;\r\n    }\r\n    \r\n    function listMyTasks() public view returns (uint[] memory) {\r\n        return myTasks[msg.sender];\r\n    }\r\n    \r\n    function addTask(string memory _name, TaskPhase _phase, uint _priority) public returns (uint index) {\r\n        require ((_priority >= 1 && _priority <=5), \"priority must be between 1 and 5\");\r\n        TaskStruct memory taskAux = TaskStruct ({\r\n            owner: msg.sender,\r\n            name: _name,\r\n            phase: _phase, \r\n            priority: _priority\r\n        });\r\n        index = tasks.push (taskAux) - 1;\r\n        nTasks ++;\r\n        myTasks[msg.sender].push(index);\r\n        emit TaskAdded (msg.sender, _name, _phase, _priority);\r\n    }\r\n    \r\n    function updatePhase(uint _taskIndex, TaskPhase _phase) public onlyOwner(_taskIndex) {\r\n        tasks[_taskIndex].phase = _phase;\r\n    }\r\n    \r\n}",
  "sourcePath": "C:\\Users\\alanb\\Documents\\sources\\blockchain\\taskmanager\\contracts\\taskManager.sol",
  "compiler": {
    "name": "solc",
    "version": "0.5.16+commit.9c3226ce.Emscripten.clang"
  },
  "schemaVersion": "3.4.4",
  "updatedAt": "2021-12-29T02:24:50.604Z",
  "networkType": "ethereum",
  "devdoc": {
    "methods": {}
  },
  "userdoc": {
    "methods": {}
  }
}